{
  "_format": "hh-sol-artifact-1",
  "contractName": "bank",
  "sourceName": "contracts/bank.sol",
  "abi": [
    {
      "anonymous": false,
      "inputs": [
        {
          "indexed": false,
          "internalType": "address",
          "name": "addr_clients",
          "type": "address"
        }
      ],
      "name": "SavingEvent",
      "type": "event"
    },
    {
      "inputs": [],
      "name": "ClientsForHelping",
      "outputs": [
        {
          "internalType": "uint256",
          "name": "",
          "type": "uint256"
        }
      ],
      "stateMutability": "view",
      "type": "function"
    },
    {
      "inputs": [],
      "name": "Each",
      "outputs": [],
      "stateMutability": "nonpayable",
      "type": "function"
    },
    {
      "inputs": [],
      "name": "FinalTime",
      "outputs": [],
      "stateMutability": "nonpayable",
      "type": "function"
    },
    {
      "inputs": [],
      "name": "HaveToPay",
      "outputs": [],
      "stateMutability": "nonpayable",
      "type": "function"
    },
    {
      "inputs": [],
      "name": "Return_RepayAmt",
      "outputs": [
        {
          "internalType": "uint256",
          "name": "",
          "type": "uint256"
        }
      ],
      "stateMutability": "view",
      "type": "function"
    },
    {
      "inputs": [],
      "name": "Total_Time",
      "outputs": [
        {
          "internalType": "uint256",
          "name": "",
          "type": "uint256"
        }
      ],
      "stateMutability": "view",
      "type": "function"
    },
    {
      "inputs": [
        {
          "internalType": "string",
          "name": "name",
          "type": "string"
        },
        {
          "internalType": "uint256",
          "name": "age",
          "type": "uint256"
        }
      ],
      "name": "add_Clients",
      "outputs": [],
      "stateMutability": "nonpayable",
      "type": "function"
    },
    {
      "inputs": [
        {
          "internalType": "address",
          "name": "add",
          "type": "address"
        }
      ],
      "name": "add_me",
      "outputs": [],
      "stateMutability": "nonpayable",
      "type": "function"
    },
    {
      "inputs": [],
      "name": "calc_totalTime",
      "outputs": [],
      "stateMutability": "nonpayable",
      "type": "function"
    },
    {
      "inputs": [
        {
          "internalType": "address",
          "name": "",
          "type": "address"
        }
      ],
      "name": "clients",
      "outputs": [
        {
          "internalType": "string",
          "name": "name",
          "type": "string"
        },
        {
          "internalType": "uint256",
          "name": "age",
          "type": "uint256"
        }
      ],
      "stateMutability": "view",
      "type": "function"
    },
    {
      "inputs": [],
      "name": "clients_Added",
      "outputs": [
        {
          "internalType": "uint256",
          "name": "",
          "type": "uint256"
        }
      ],
      "stateMutability": "view",
      "type": "function"
    },
    {
      "inputs": [],
      "name": "deposit",
      "outputs": [],
      "stateMutability": "payable",
      "type": "function"
    },
    {
      "inputs": [],
      "name": "extra_cost_frmEach",
      "outputs": [
        {
          "internalType": "uint256",
          "name": "",
          "type": "uint256"
        }
      ],
      "stateMutability": "view",
      "type": "function"
    },
    {
      "inputs": [],
      "name": "extra_trnc",
      "outputs": [
        {
          "internalType": "uint256",
          "name": "",
          "type": "uint256"
        }
      ],
      "stateMutability": "view",
      "type": "function"
    },
    {
      "inputs": [],
      "name": "getContractBalance",
      "outputs": [
        {
          "internalType": "uint256",
          "name": "",
          "type": "uint256"
        }
      ],
      "stateMutability": "view",
      "type": "function"
    },
    {
      "inputs": [],
      "name": "havetopay_new",
      "outputs": [
        {
          "internalType": "uint256",
          "name": "temp",
          "type": "uint256"
        }
      ],
      "stateMutability": "view",
      "type": "function"
    },
    {
      "inputs": [
        {
          "internalType": "uint256",
          "name": "demand_amount",
          "type": "uint256"
        },
        {
          "internalType": "uint256",
          "name": "loantimeInDays",
          "type": "uint256"
        }
      ],
      "name": "instant",
      "outputs": [],
      "stateMutability": "nonpayable",
      "type": "function"
    },
    {
      "inputs": [],
      "name": "intrest_Amount",
      "outputs": [],
      "stateMutability": "nonpayable",
      "type": "function"
    },
    {
      "inputs": [],
      "name": "length",
      "outputs": [
        {
          "internalType": "uint256",
          "name": "",
          "type": "uint256"
        }
      ],
      "stateMutability": "view",
      "type": "function"
    },
    {
      "inputs": [],
      "name": "repay_Amount",
      "outputs": [],
      "stateMutability": "nonpayable",
      "type": "function"
    },
    {
      "inputs": [],
      "name": "thankYou",
      "outputs": [],
      "stateMutability": "nonpayable",
      "type": "function"
    },
    {
      "inputs": [],
      "name": "transfer",
      "outputs": [],
      "stateMutability": "nonpayable",
      "type": "function"
    }
  ],
  "bytecode": "0x6080604052600060085562054600600a5461001a9190610072565b600c556000600e55600060145534801561003357600080fd5b506100c8565b6000819050919050565b7f4e487b7100000000000000000000000000000000000000000000000000000000600052601160045260246000fd5b600061007d82610039565b915061008883610039565b9250827fffffffffffffffffffffffffffffffffffffffffffffffffffffffffffffffff038211156100bd576100bc610043565b5b828201905092915050565b61124b806100d76000396000f3fe6080604052600436106101355760003560e01c80638ff1ab37116100ab578063b28442771161006f578063b284427714610383578063cecd40bd146103ac578063d0e30db0146103d5578063db2b94c5146103df578063fadc9391146103f6578063ff7708351461040d57610135565b80638ff1ab37146102c2578063a0ce04e5146102ed578063a4f6532e14610316578063a839b62b14610341578063aae20e001461036c57610135565b8063447e013d116100fd578063447e013d146101d557806351545499146102005780635381ca991461022b57806361eed2a9146102425780636f9fb98a146102805780638a4068dd146102ab57610135565b80631f7b6d321461013a578063273c3b0c146101655780632c8601561461017c5780632d480a80146101a75780633eccb06d146101be575b600080fd5b34801561014657600080fd5b5061014f610438565b60405161015c9190610c49565b60405180910390f35b34801561017157600080fd5b5061017a610445565b005b34801561018857600080fd5b5061019161044e565b60405161019e9190610c49565b60405180910390f35b3480156101b357600080fd5b506101bc610458565b005b3480156101ca57600080fd5b506101d3610510565b005b3480156101e157600080fd5b506101ea61053d565b6040516101f79190610c49565b60405180910390f35b34801561020c57600080fd5b50610215610553565b6040516102229190610c49565b60405180910390f35b34801561023757600080fd5b5061024061055d565b005b34801561024e57600080fd5b5061026960048036038101906102649190610cd6565b61061b565b604051610277929190610d9c565b60405180910390f35b34801561028c57600080fd5b506102956106c7565b6040516102a29190610c49565b60405180910390f35b3480156102b757600080fd5b506102c06106cf565b005b3480156102ce57600080fd5b506102d7610758565b6040516102e49190610c49565b60405180910390f35b3480156102f957600080fd5b50610314600480360381019061030f9190610f2d565b610762565b005b34801561032257600080fd5b5061032b610a14565b6040516103389190610c49565b60405180910390f35b34801561034d57600080fd5b50610356610a1e565b6040516103639190610c49565b60405180910390f35b34801561037857600080fd5b50610381610a28565b005b34801561038f57600080fd5b506103aa60048036038101906103a59190610cd6565b610a40565b005b3480156103b857600080fd5b506103d360048036038101906103ce9190610f89565b610ad2565b005b6103dd610b39565b005b3480156103eb57600080fd5b506103f4610b3b565b005b34801561040257600080fd5b5061040b610b53565b005b34801561041957600080fd5b50610422610b6e565b60405161042f9190610c49565b60405180910390f35b6000600580549050905090565b42601081905550565b6000601354905090565b5b600480549050601454101561050e5760046014548154811061047e5761047d610fc9565b5b9060005260206000200160009054906101000a900473ffffffffffffffffffffffffffffffffffffffff1673ffffffffffffffffffffffffffffffffffffffff166108fc6015549081150290604051600060405180830381858888f193505050501580156104f0573d6000803e3d6000fd5b506014600081548092919061050490611027565b9190505550610459565b565b610518610b6e565b60048054905060015461052b919061109f565b61053591906110d0565b600b81905550565b6000606460015461054e919061109f565b905090565b6000600b54905090565b6002546011541161059a576305265c00601154601960015461057f9190611126565b6105899190611126565b610593919061109f565b6012819055505b6002546011541115610619576283d6006002546011546105ba9190611180565b60056001546105c99190611126565b6105d39190611126565b6105dd919061109f565b6305265c0060115460196001546105f49190611126565b6105fe9190611126565b610608919061109f565b61061291906110d0565b6012819055505b565b600660205280600052604060002060009150905080600001805461063e906111e3565b80601f016020809104026020016040519081016040528092919081815260200182805461066a906111e3565b80156106b75780601f1061068c576101008083540402835291602001916106b7565b820191906000526020600020905b81548152906001019060200180831161069a57829003601f168201915b5050505050908060010154905082565b600047905090565b60008054906101000a900473ffffffffffffffffffffffffffffffffffffffff1673ffffffffffffffffffffffffffffffffffffffff166108fc61071161053d565b6107196106c7565b6107239190611180565b9081150290604051600060405180830381858888f1935050505015801561074e573d6000803e3d6000fd5b5042600f81905550565b6000600854905090565b6001600580549050106109165760006009819055505b60058054905060095410156109115760056009548154811061079d5761079c610fc9565b5b9060005260206000200160009054906101000a900473ffffffffffffffffffffffffffffffffffffffff1673ffffffffffffffffffffffffffffffffffffffff163373ffffffffffffffffffffffffffffffffffffffff16146108f457604051806040016040528083815260200182815250600660003373ffffffffffffffffffffffffffffffffffffffff1673ffffffffffffffffffffffffffffffffffffffff168152602001908152602001600020600082015181600001908051906020019061086a929190610b8d565b50602082015181600101559050506008600081548092919061088b90611027565b91905055506005339080600181540180825580915050600190039060005260206000200160009091909190916101000a81548173ffffffffffffffffffffffffffffffffffffffff021916908373ffffffffffffffffffffffffffffffffffffffff1602179055505b6009600081548092919061090790611027565b9190505550610778565b610a10565b604051806040016040528083815260200182815250600660003373ffffffffffffffffffffffffffffffffffffffff1673ffffffffffffffffffffffffffffffffffffffff1681526020019081526020016000206000820151816000019080519060200190610986929190610b8d565b5060208201518160010155905050600860008154809291906109a790611027565b91905055506005339080600181540180825580915050600190039060005260206000200160009091909190916101000a81548173ffffffffffffffffffffffffffffffffffffffff021916908373ffffffffffffffffffffffffffffffffffffffff1602179055505b5050565b6000600e54905090565b6000601154905090565b600f54601054610a389190611180565b601181905550565b42600d81905550600c54600d541015610ab7576004819080600181540180825580915050600190039060005260206000200160009091909190916101000a81548173ffffffffffffffffffffffffffffffffffffffff021916908373ffffffffffffffffffffffffffffffffffffffff1602179055505b600e6000815480929190610aca90611027565b919050555050565b336000806101000a81548173ffffffffffffffffffffffffffffffffffffffff021916908373ffffffffffffffffffffffffffffffffffffffff160217905550605a811115610b2057600080fd5b816001819055508060028190555042600a819055505050565b565b601254600154610b4b91906110d0565b601381905550565b600480549050601354610b66919061109f565b601581905550565b6000600480549050610b7e61053d565b610b88919061109f565b905090565b828054610b99906111e3565b90600052602060002090601f016020900481019282610bbb5760008555610c02565b82601f10610bd457805160ff1916838001178555610c02565b82800160010185558215610c02579182015b82811115610c01578251825591602001919060010190610be6565b5b509050610c0f9190610c13565b5090565b5b80821115610c2c576000816000905550600101610c14565b5090565b6000819050919050565b610c4381610c30565b82525050565b6000602082019050610c5e6000830184610c3a565b92915050565b6000604051905090565b600080fd5b600080fd5b600073ffffffffffffffffffffffffffffffffffffffff82169050919050565b6000610ca382610c78565b9050919050565b610cb381610c98565b8114610cbe57600080fd5b50565b600081359050610cd081610caa565b92915050565b600060208284031215610cec57610ceb610c6e565b5b6000610cfa84828501610cc1565b91505092915050565b600081519050919050565b600082825260208201905092915050565b60005b83811015610d3d578082015181840152602081019050610d22565b83811115610d4c576000848401525b50505050565b6000601f19601f8301169050919050565b6000610d6e82610d03565b610d788185610d0e565b9350610d88818560208601610d1f565b610d9181610d52565b840191505092915050565b60006040820190508181036000830152610db68185610d63565b9050610dc56020830184610c3a565b9392505050565b600080fd5b600080fd5b7f4e487b7100000000000000000000000000000000000000000000000000000000600052604160045260246000fd5b610e0e82610d52565b810181811067ffffffffffffffff82111715610e2d57610e2c610dd6565b5b80604052505050565b6000610e40610c64565b9050610e4c8282610e05565b919050565b600067ffffffffffffffff821115610e6c57610e6b610dd6565b5b610e7582610d52565b9050602081019050919050565b82818337600083830152505050565b6000610ea4610e9f84610e51565b610e36565b905082815260208101848484011115610ec057610ebf610dd1565b5b610ecb848285610e82565b509392505050565b600082601f830112610ee857610ee7610dcc565b5b8135610ef8848260208601610e91565b91505092915050565b610f0a81610c30565b8114610f1557600080fd5b50565b600081359050610f2781610f01565b92915050565b60008060408385031215610f4457610f43610c6e565b5b600083013567ffffffffffffffff811115610f6257610f61610c73565b5b610f6e85828601610ed3565b9250506020610f7f85828601610f18565b9150509250929050565b60008060408385031215610fa057610f9f610c6e565b5b6000610fae85828601610f18565b9250506020610fbf85828601610f18565b9150509250929050565b7f4e487b7100000000000000000000000000000000000000000000000000000000600052603260045260246000fd5b7f4e487b7100000000000000000000000000000000000000000000000000000000600052601160045260246000fd5b600061103282610c30565b91507fffffffffffffffffffffffffffffffffffffffffffffffffffffffffffffffff82141561106557611064610ff8565b5b600182019050919050565b7f4e487b7100000000000000000000000000000000000000000000000000000000600052601260045260246000fd5b60006110aa82610c30565b91506110b583610c30565b9250826110c5576110c4611070565b5b828204905092915050565b60006110db82610c30565b91506110e683610c30565b9250827fffffffffffffffffffffffffffffffffffffffffffffffffffffffffffffffff0382111561111b5761111a610ff8565b5b828201905092915050565b600061113182610c30565b915061113c83610c30565b9250817fffffffffffffffffffffffffffffffffffffffffffffffffffffffffffffffff048311821515161561117557611174610ff8565b5b828202905092915050565b600061118b82610c30565b915061119683610c30565b9250828210156111a9576111a8610ff8565b5b828203905092915050565b7f4e487b7100000000000000000000000000000000000000000000000000000000600052602260045260246000fd5b600060028204905060018216806111fb57607f821691505b6020821081141561120f5761120e6111b4565b5b5091905056fea2646970667358221220c18a71adb0b49deee3a1ca406b27c5aec3774b5ad36b8e36e1622cda685588bb64736f6c63430008090033",
  "linkReferences": {},
  "deployedLinkReferences": {}
}