{
  "_format": "hh-sol-artifact-1",
  "contractName": "parking",
  "sourceName": "contracts/parking.sol",
  "abi": [
    {
      "inputs": [
        {
          "internalType": "address",
          "name": "",
          "type": "address"
        }
      ],
      "name": "balance",
      "outputs": [
        {
          "internalType": "uint256",
          "name": "",
          "type": "uint256"
        }
      ],
      "stateMutability": "view",
      "type": "function"
    },
    {
      "inputs": [
        {
          "internalType": "address",
          "name": "",
          "type": "address"
        }
      ],
      "name": "entryTimes",
      "outputs": [
        {
          "internalType": "uint256",
          "name": "",
          "type": "uint256"
        }
      ],
      "stateMutability": "view",
      "type": "function"
    },
    {
      "inputs": [
        {
          "internalType": "address",
          "name": "visitor",
          "type": "address"
        }
      ],
      "name": "getParkingFee",
      "outputs": [
        {
          "internalType": "uint256",
          "name": "",
          "type": "uint256"
        }
      ],
      "stateMutability": "nonpayable",
      "type": "function"
    },
    {
      "inputs": [],
      "name": "getrefund",
      "outputs": [],
      "stateMutability": "nonpayable",
      "type": "function"
    },
    {
      "inputs": [],
      "name": "parkingTime",
      "outputs": [
        {
          "internalType": "uint256",
          "name": "",
          "type": "uint256"
        }
      ],
      "stateMutability": "view",
      "type": "function"
    },
    {
      "stateMutability": "payable",
      "type": "receive"
    }
  ],
  "bytecode": "0x608060405234801561001057600080fd5b5061058b806100206000396000f3fe60806040526004361061004e5760003560e01c80632a39d92e146101255780632ef9663f1461013c5780638f97e9e714610179578063a2ebb53d146101a4578063e3d670d7146101e157610120565b366101205760003411610096576040517f08c379a000000000000000000000000000000000000000000000000000000000815260040161008d906103b4565b60405180910390fd5b34600160003373ffffffffffffffffffffffffffffffffffffffff1673ffffffffffffffffffffffffffffffffffffffff1681526020019081526020016000208190555042600260003373ffffffffffffffffffffffffffffffffffffffff1673ffffffffffffffffffffffffffffffffffffffff16815260200190815260200160002081905550005b600080fd5b34801561013157600080fd5b5061013a61021e565b005b34801561014857600080fd5b50610163600480360381019061015e9190610437565b6102b8565b604051610170919061047d565b60405180910390f35b34801561018557600080fd5b5061018e6102d0565b60405161019b919061047d565b60405180910390f35b3480156101b057600080fd5b506101cb60048036038101906101c69190610437565b6102d6565b6040516101d8919061047d565b60405180910390f35b3480156101ed57600080fd5b5061020860048036038101906102039190610437565b61033f565b604051610215919061047d565b60405180910390f35b60008054600160003373ffffffffffffffffffffffffffffffffffffffff1673ffffffffffffffffffffffffffffffffffffffff1681526020019081526020016000205461026c91906104c7565b90503373ffffffffffffffffffffffffffffffffffffffff166108fc829081150290604051600060405180830381858888f193505050501580156102b4573d6000803e3d6000fd5b5050565b60026020528060005260406000206000915090505481565b60005481565b6000600260008373ffffffffffffffffffffffffffffffffffffffff1673ffffffffffffffffffffffffffffffffffffffff168152602001908152602001600020544261032391906104c7565b600081905550600160005461033891906104fb565b9050919050565b60016020528060005260406000206000915090505481565b600082825260208201905092915050565b7f596f75206d7573742070617920736f6d6520616d6f756e740000000000000000600082015250565b600061039e601883610357565b91506103a982610368565b602082019050919050565b600060208201905081810360008301526103cd81610391565b9050919050565b600080fd5b600073ffffffffffffffffffffffffffffffffffffffff82169050919050565b6000610404826103d9565b9050919050565b610414816103f9565b811461041f57600080fd5b50565b6000813590506104318161040b565b92915050565b60006020828403121561044d5761044c6103d4565b5b600061045b84828501610422565b91505092915050565b6000819050919050565b61047781610464565b82525050565b6000602082019050610492600083018461046e565b92915050565b7f4e487b7100000000000000000000000000000000000000000000000000000000600052601160045260246000fd5b60006104d282610464565b91506104dd83610464565b9250828210156104f0576104ef610498565b5b828203905092915050565b600061050682610464565b915061051183610464565b9250817fffffffffffffffffffffffffffffffffffffffffffffffffffffffffffffffff048311821515161561054a57610549610498565b5b82820290509291505056fea2646970667358221220d30df7425472de1fcdc3b7f482095bab009f67f15818a4cfcecd1ea1b198affc64736f6c63430008090033",
  "linkReferences": {},
  "deployedLinkReferences": {}
}