{
  "_format": "hh-sol-artifact-1",
  "contractName": "bank",
  "sourceName": "contracts/bank.sol",
  "abi": [
    {
      "anonymous": false,
      "inputs": [
        {
          "indexed": false,
          "internalType": "address",
          "name": "addr_clients",
          "type": "address"
        }
      ],
      "name": "SavingEvent",
      "type": "event"
    },
    {
      "inputs": [],
      "name": "ClientsForHelping",
      "outputs": [
        {
          "internalType": "uint256",
          "name": "",
          "type": "uint256"
        }
      ],
      "stateMutability": "view",
      "type": "function"
    },
    {
      "inputs": [],
      "name": "Each",
      "outputs": [],
      "stateMutability": "nonpayable",
      "type": "function"
    },
    {
      "inputs": [],
      "name": "FinalTime",
      "outputs": [],
      "stateMutability": "nonpayable",
      "type": "function"
    },
    {
      "inputs": [],
      "name": "HaveToPay",
      "outputs": [],
      "stateMutability": "nonpayable",
      "type": "function"
    },
    {
      "inputs": [],
      "name": "Return_RepayAmt",
      "outputs": [
        {
          "internalType": "uint256",
          "name": "",
          "type": "uint256"
        }
      ],
      "stateMutability": "view",
      "type": "function"
    },
    {
      "inputs": [],
      "name": "Total_Time",
      "outputs": [
        {
          "internalType": "uint256",
          "name": "",
          "type": "uint256"
        }
      ],
      "stateMutability": "view",
      "type": "function"
    },
    {
      "inputs": [
        {
          "internalType": "string",
          "name": "name",
          "type": "string"
        },
        {
          "internalType": "uint256",
          "name": "age",
          "type": "uint256"
        }
      ],
      "name": "add_Clients",
      "outputs": [],
      "stateMutability": "nonpayable",
      "type": "function"
    },
    {
      "inputs": [
        {
          "internalType": "address",
          "name": "add",
          "type": "address"
        }
      ],
      "name": "add_me",
      "outputs": [],
      "stateMutability": "nonpayable",
      "type": "function"
    },
    {
      "inputs": [],
      "name": "calc_totalTime",
      "outputs": [],
      "stateMutability": "nonpayable",
      "type": "function"
    },
    {
      "inputs": [
        {
          "internalType": "address",
          "name": "",
          "type": "address"
        }
      ],
      "name": "clients",
      "outputs": [
        {
          "internalType": "string",
          "name": "name",
          "type": "string"
        },
        {
          "internalType": "uint256",
          "name": "age",
          "type": "uint256"
        }
      ],
      "stateMutability": "view",
      "type": "function"
    },
    {
      "inputs": [],
      "name": "clients_Added",
      "outputs": [
        {
          "internalType": "uint256",
          "name": "",
          "type": "uint256"
        }
      ],
      "stateMutability": "view",
      "type": "function"
    },
    {
      "inputs": [],
      "name": "deposit",
      "outputs": [],
      "stateMutability": "payable",
      "type": "function"
    },
    {
      "inputs": [],
      "name": "extra_cost_frmEach",
      "outputs": [
        {
          "internalType": "uint256",
          "name": "",
          "type": "uint256"
        }
      ],
      "stateMutability": "view",
      "type": "function"
    },
    {
      "inputs": [],
      "name": "extra_trnc",
      "outputs": [
        {
          "internalType": "uint256",
          "name": "",
          "type": "uint256"
        }
      ],
      "stateMutability": "view",
      "type": "function"
    },
    {
      "inputs": [],
      "name": "getContractBalance",
      "outputs": [
        {
          "internalType": "uint256",
          "name": "",
          "type": "uint256"
        }
      ],
      "stateMutability": "view",
      "type": "function"
    },
    {
      "inputs": [
        {
          "internalType": "uint256",
          "name": "demand_amount",
          "type": "uint256"
        },
        {
          "internalType": "uint256",
          "name": "loantimeInDays",
          "type": "uint256"
        }
      ],
      "name": "instant",
      "outputs": [],
      "stateMutability": "nonpayable",
      "type": "function"
    },
    {
      "inputs": [],
      "name": "intrest_Amount",
      "outputs": [],
      "stateMutability": "nonpayable",
      "type": "function"
    },
    {
      "inputs": [],
      "name": "length",
      "outputs": [
        {
          "internalType": "uint256",
          "name": "",
          "type": "uint256"
        }
      ],
      "stateMutability": "view",
      "type": "function"
    },
    {
      "inputs": [],
      "name": "repay_Amount",
      "outputs": [],
      "stateMutability": "nonpayable",
      "type": "function"
    },
    {
      "inputs": [],
      "name": "thankYou",
      "outputs": [],
      "stateMutability": "nonpayable",
      "type": "function"
    },
    {
      "inputs": [],
      "name": "transfer",
      "outputs": [],
      "stateMutability": "nonpayable",
      "type": "function"
    }
  ],
  "bytecode": "0x6080604052600060085562054600600a5461001a9190610072565b600c556000600e55600060145534801561003357600080fd5b506100c8565b6000819050919050565b7f4e487b7100000000000000000000000000000000000000000000000000000000600052601160045260246000fd5b600061007d82610039565b915061008883610039565b9250827fffffffffffffffffffffffffffffffffffffffffffffffffffffffffffffffff038211156100bd576100bc610043565b5b828201905092915050565b61120b806100d76000396000f3fe60806040526004361061012a5760003560e01c80638ff1ab37116100ab578063b28442771161006f578063b28442771461034d578063cecd40bd14610376578063d0e30db01461039f578063db2b94c5146103a9578063fadc9391146103c0578063ff770835146103d75761012a565b80638ff1ab371461028c578063a0ce04e5146102b7578063a4f6532e146102e0578063a839b62b1461030b578063aae20e00146103365761012a565b8063447e013d116100f2578063447e013d146101ca5780635381ca99146101f557806361eed2a91461020c5780636f9fb98a1461024a5780638a4068dd146102755761012a565b80631f7b6d321461012f578063273c3b0c1461015a5780632c860156146101715780632d480a801461019c5780633eccb06d146101b3575b600080fd5b34801561013b57600080fd5b50610144610402565b6040516101519190610c09565b60405180910390f35b34801561016657600080fd5b5061016f61040f565b005b34801561017d57600080fd5b50610186610418565b6040516101939190610c09565b60405180910390f35b3480156101a857600080fd5b506101b1610422565b005b3480156101bf57600080fd5b506101c86104da565b005b3480156101d657600080fd5b506101df610507565b6040516101ec9190610c09565b60405180910390f35b34801561020157600080fd5b5061020a61051d565b005b34801561021857600080fd5b50610233600480360381019061022e9190610c96565b6105db565b604051610241929190610d5c565b60405180910390f35b34801561025657600080fd5b5061025f610687565b60405161026c9190610c09565b60405180910390f35b34801561028157600080fd5b5061028a61068f565b005b34801561029857600080fd5b506102a1610718565b6040516102ae9190610c09565b60405180910390f35b3480156102c357600080fd5b506102de60048036038101906102d99190610eed565b610722565b005b3480156102ec57600080fd5b506102f56109d4565b6040516103029190610c09565b60405180910390f35b34801561031757600080fd5b506103206109de565b60405161032d9190610c09565b60405180910390f35b34801561034257600080fd5b5061034b6109e8565b005b34801561035957600080fd5b50610374600480360381019061036f9190610c96565b610a00565b005b34801561038257600080fd5b5061039d60048036038101906103989190610f49565b610a92565b005b6103a7610af9565b005b3480156103b557600080fd5b506103be610afb565b005b3480156103cc57600080fd5b506103d5610b13565b005b3480156103e357600080fd5b506103ec610b2e565b6040516103f99190610c09565b60405180910390f35b6000600580549050905090565b42601081905550565b6000601354905090565b5b60048054905060145410156104d85760046014548154811061044857610447610f89565b5b9060005260206000200160009054906101000a900473ffffffffffffffffffffffffffffffffffffffff1673ffffffffffffffffffffffffffffffffffffffff166108fc6015549081150290604051600060405180830381858888f193505050501580156104ba573d6000803e3d6000fd5b50601460008154809291906104ce90610fe7565b9190505550610423565b565b6104e2610b2e565b6004805490506001546104f5919061105f565b6104ff9190611090565b600b81905550565b60006064600154610518919061105f565b905090565b6002546011541161055a576305265c00601154601960015461053f91906110e6565b61054991906110e6565b610553919061105f565b6012819055505b60025460115411156105d9576283d60060025460115461057a9190611140565b600560015461058991906110e6565b61059391906110e6565b61059d919061105f565b6305265c0060115460196001546105b491906110e6565b6105be91906110e6565b6105c8919061105f565b6105d29190611090565b6012819055505b565b60066020528060005260406000206000915090508060000180546105fe906111a3565b80601f016020809104026020016040519081016040528092919081815260200182805461062a906111a3565b80156106775780601f1061064c57610100808354040283529160200191610677565b820191906000526020600020905b81548152906001019060200180831161065a57829003601f168201915b5050505050908060010154905082565b600047905090565b60008054906101000a900473ffffffffffffffffffffffffffffffffffffffff1673ffffffffffffffffffffffffffffffffffffffff166108fc6106d1610507565b6106d9610687565b6106e39190611140565b9081150290604051600060405180830381858888f1935050505015801561070e573d6000803e3d6000fd5b5042600f81905550565b6000600854905090565b6001600580549050106108d65760006009819055505b60058054905060095410156108d15760056009548154811061075d5761075c610f89565b5b9060005260206000200160009054906101000a900473ffffffffffffffffffffffffffffffffffffffff1673ffffffffffffffffffffffffffffffffffffffff163373ffffffffffffffffffffffffffffffffffffffff16146108b457604051806040016040528083815260200182815250600660003373ffffffffffffffffffffffffffffffffffffffff1673ffffffffffffffffffffffffffffffffffffffff168152602001908152602001600020600082015181600001908051906020019061082a929190610b4d565b50602082015181600101559050506008600081548092919061084b90610fe7565b91905055506005339080600181540180825580915050600190039060005260206000200160009091909190916101000a81548173ffffffffffffffffffffffffffffffffffffffff021916908373ffffffffffffffffffffffffffffffffffffffff1602179055505b600960008154809291906108c790610fe7565b9190505550610738565b6109d0565b604051806040016040528083815260200182815250600660003373ffffffffffffffffffffffffffffffffffffffff1673ffffffffffffffffffffffffffffffffffffffff1681526020019081526020016000206000820151816000019080519060200190610946929190610b4d565b50602082015181600101559050506008600081548092919061096790610fe7565b91905055506005339080600181540180825580915050600190039060005260206000200160009091909190916101000a81548173ffffffffffffffffffffffffffffffffffffffff021916908373ffffffffffffffffffffffffffffffffffffffff1602179055505b5050565b6000600e54905090565b6000601154905090565b600f546010546109f89190611140565b601181905550565b42600d81905550600c54600d541015610a77576004819080600181540180825580915050600190039060005260206000200160009091909190916101000a81548173ffffffffffffffffffffffffffffffffffffffff021916908373ffffffffffffffffffffffffffffffffffffffff1602179055505b600e6000815480929190610a8a90610fe7565b919050555050565b336000806101000a81548173ffffffffffffffffffffffffffffffffffffffff021916908373ffffffffffffffffffffffffffffffffffffffff160217905550605a811115610ae057600080fd5b816001819055508060028190555042600a819055505050565b565b601254600154610b0b9190611090565b601381905550565b600480549050601354610b26919061105f565b601581905550565b6000600480549050610b3e610507565b610b48919061105f565b905090565b828054610b59906111a3565b90600052602060002090601f016020900481019282610b7b5760008555610bc2565b82601f10610b9457805160ff1916838001178555610bc2565b82800160010185558215610bc2579182015b82811115610bc1578251825591602001919060010190610ba6565b5b509050610bcf9190610bd3565b5090565b5b80821115610bec576000816000905550600101610bd4565b5090565b6000819050919050565b610c0381610bf0565b82525050565b6000602082019050610c1e6000830184610bfa565b92915050565b6000604051905090565b600080fd5b600080fd5b600073ffffffffffffffffffffffffffffffffffffffff82169050919050565b6000610c6382610c38565b9050919050565b610c7381610c58565b8114610c7e57600080fd5b50565b600081359050610c9081610c6a565b92915050565b600060208284031215610cac57610cab610c2e565b5b6000610cba84828501610c81565b91505092915050565b600081519050919050565b600082825260208201905092915050565b60005b83811015610cfd578082015181840152602081019050610ce2565b83811115610d0c576000848401525b50505050565b6000601f19601f8301169050919050565b6000610d2e82610cc3565b610d388185610cce565b9350610d48818560208601610cdf565b610d5181610d12565b840191505092915050565b60006040820190508181036000830152610d768185610d23565b9050610d856020830184610bfa565b9392505050565b600080fd5b600080fd5b7f4e487b7100000000000000000000000000000000000000000000000000000000600052604160045260246000fd5b610dce82610d12565b810181811067ffffffffffffffff82111715610ded57610dec610d96565b5b80604052505050565b6000610e00610c24565b9050610e0c8282610dc5565b919050565b600067ffffffffffffffff821115610e2c57610e2b610d96565b5b610e3582610d12565b9050602081019050919050565b82818337600083830152505050565b6000610e64610e5f84610e11565b610df6565b905082815260208101848484011115610e8057610e7f610d91565b5b610e8b848285610e42565b509392505050565b600082601f830112610ea857610ea7610d8c565b5b8135610eb8848260208601610e51565b91505092915050565b610eca81610bf0565b8114610ed557600080fd5b50565b600081359050610ee781610ec1565b92915050565b60008060408385031215610f0457610f03610c2e565b5b600083013567ffffffffffffffff811115610f2257610f21610c33565b5b610f2e85828601610e93565b9250506020610f3f85828601610ed8565b9150509250929050565b60008060408385031215610f6057610f5f610c2e565b5b6000610f6e85828601610ed8565b9250506020610f7f85828601610ed8565b9150509250929050565b7f4e487b7100000000000000000000000000000000000000000000000000000000600052603260045260246000fd5b7f4e487b7100000000000000000000000000000000000000000000000000000000600052601160045260246000fd5b6000610ff282610bf0565b91507fffffffffffffffffffffffffffffffffffffffffffffffffffffffffffffffff82141561102557611024610fb8565b5b600182019050919050565b7f4e487b7100000000000000000000000000000000000000000000000000000000600052601260045260246000fd5b600061106a82610bf0565b915061107583610bf0565b92508261108557611084611030565b5b828204905092915050565b600061109b82610bf0565b91506110a683610bf0565b9250827fffffffffffffffffffffffffffffffffffffffffffffffffffffffffffffffff038211156110db576110da610fb8565b5b828201905092915050565b60006110f182610bf0565b91506110fc83610bf0565b9250817fffffffffffffffffffffffffffffffffffffffffffffffffffffffffffffffff048311821515161561113557611134610fb8565b5b828202905092915050565b600061114b82610bf0565b915061115683610bf0565b92508282101561116957611168610fb8565b5b828203905092915050565b7f4e487b7100000000000000000000000000000000000000000000000000000000600052602260045260246000fd5b600060028204905060018216806111bb57607f821691505b602082108114156111cf576111ce611174565b5b5091905056fea264697066735822122057560d2a139b479b75ee4ea8aff4164904a197dea05d20c6e1618a752e12feb964736f6c63430008090033",
  "linkReferences": {},
  "deployedLinkReferences": {}
}